{
  "_format": "hh-sol-artifact-1",
  "contractName": "RewardDistributor",
  "sourceName": "contracts/RewardDistributor.sol",
  "abi": [
    {
      "inputs": [
        {
          "internalType": "address",
          "name": "_orbitToken",
          "type": "address"
        }
      ],
      "stateMutability": "nonpayable",
      "type": "constructor"
    },
    {
      "inputs": [
        {
          "internalType": "address",
          "name": "owner",
          "type": "address"
        }
      ],
      "name": "OwnableInvalidOwner",
      "type": "error"
    },
    {
      "inputs": [
        {
          "internalType": "address",
          "name": "account",
          "type": "address"
        }
      ],
      "name": "OwnableUnauthorizedAccount",
      "type": "error"
    },
    {
      "inputs": [],
      "name": "ReentrancyGuardReentrantCall",
      "type": "error"
    },
    {
      "anonymous": false,
      "inputs": [
        {
          "indexed": true,
          "internalType": "string",
          "name": "epochId",
          "type": "string"
        },
        {
          "indexed": false,
          "internalType": "uint256",
          "name": "totalAmount",
          "type": "uint256"
        },
        {
          "indexed": false,
          "internalType": "uint256",
          "name": "recipients",
          "type": "uint256"
        }
      ],
      "name": "BatchDistributed",
      "type": "event"
    },
    {
      "anonymous": false,
      "inputs": [
        {
          "indexed": false,
          "internalType": "uint256",
          "name": "oldRate",
          "type": "uint256"
        },
        {
          "indexed": false,
          "internalType": "uint256",
          "name": "newRate",
          "type": "uint256"
        }
      ],
      "name": "ConversionRateUpdated",
      "type": "event"
    },
    {
      "anonymous": false,
      "inputs": [
        {
          "indexed": true,
          "internalType": "address",
          "name": "previousOwner",
          "type": "address"
        },
        {
          "indexed": true,
          "internalType": "address",
          "name": "newOwner",
          "type": "address"
        }
      ],
      "name": "OwnershipTransferred",
      "type": "event"
    },
    {
      "anonymous": false,
      "inputs": [
        {
          "indexed": true,
          "internalType": "address",
          "name": "user",
          "type": "address"
        },
        {
          "indexed": false,
          "internalType": "uint256",
          "name": "points",
          "type": "uint256"
        },
        {
          "indexed": false,
          "internalType": "uint256",
          "name": "tokens",
          "type": "uint256"
        }
      ],
      "name": "PointsRedeemed",
      "type": "event"
    },
    {
      "anonymous": false,
      "inputs": [
        {
          "indexed": true,
          "internalType": "string",
          "name": "epochId",
          "type": "string"
        },
        {
          "indexed": true,
          "internalType": "address",
          "name": "user",
          "type": "address"
        },
        {
          "indexed": false,
          "internalType": "uint256",
          "name": "amount",
          "type": "uint256"
        }
      ],
      "name": "RewardDistributed",
      "type": "event"
    },
    {
      "inputs": [
        {
          "internalType": "string",
          "name": "epochId",
          "type": "string"
        },
        {
          "internalType": "address[]",
          "name": "recipients",
          "type": "address[]"
        },
        {
          "internalType": "uint256[]",
          "name": "amounts",
          "type": "uint256[]"
        }
      ],
      "name": "batchDistribute",
      "outputs": [],
      "stateMutability": "nonpayable",
      "type": "function"
    },
    {
      "inputs": [
        {
          "internalType": "string",
          "name": "",
          "type": "string"
        },
        {
          "internalType": "address",
          "name": "",
          "type": "address"
        }
      ],
      "name": "claimed",
      "outputs": [
        {
          "internalType": "bool",
          "name": "",
          "type": "bool"
        }
      ],
      "stateMutability": "view",
      "type": "function"
    },
    {
      "inputs": [],
      "name": "conversionRate",
      "outputs": [
        {
          "internalType": "uint256",
          "name": "",
          "type": "uint256"
        }
      ],
      "stateMutability": "view",
      "type": "function"
    },
    {
      "inputs": [
        {
          "internalType": "string",
          "name": "",
          "type": "string"
        }
      ],
      "name": "epochDistributed",
      "outputs": [
        {
          "internalType": "uint256",
          "name": "",
          "type": "uint256"
        }
      ],
      "stateMutability": "view",
      "type": "function"
    },
    {
      "inputs": [],
      "name": "orbitToken",
      "outputs": [
        {
          "internalType": "contract IOrbitToken",
          "name": "",
          "type": "address"
        }
      ],
      "stateMutability": "view",
      "type": "function"
    },
    {
      "inputs": [],
      "name": "owner",
      "outputs": [
        {
          "internalType": "address",
          "name": "",
          "type": "address"
        }
      ],
      "stateMutability": "view",
      "type": "function"
    },
    {
      "inputs": [
        {
          "internalType": "address",
          "name": "user",
          "type": "address"
        },
        {
          "internalType": "uint256",
          "name": "points",
          "type": "uint256"
        }
      ],
      "name": "redeemPoints",
      "outputs": [],
      "stateMutability": "nonpayable",
      "type": "function"
    },
    {
      "inputs": [],
      "name": "renounceOwnership",
      "outputs": [],
      "stateMutability": "nonpayable",
      "type": "function"
    },
    {
      "inputs": [
        {
          "internalType": "uint256",
          "name": "_rate",
          "type": "uint256"
        }
      ],
      "name": "setConversionRate",
      "outputs": [],
      "stateMutability": "nonpayable",
      "type": "function"
    },
    {
      "inputs": [
        {
          "internalType": "address",
          "name": "_token",
          "type": "address"
        }
      ],
      "name": "setOrbitToken",
      "outputs": [],
      "stateMutability": "nonpayable",
      "type": "function"
    },
    {
      "inputs": [
        {
          "internalType": "address",
          "name": "newOwner",
          "type": "address"
        }
      ],
      "name": "transferOwnership",
      "outputs": [],
      "stateMutability": "nonpayable",
      "type": "function"
    }
  ],
  "bytecode": "0x60806040526103e860025534801561001657600080fd5b50604051610dab380380610dab833981016040819052610035916100fe565b338061005b57604051631e4fbdf760e01b81526000600482015260240160405180910390fd5b610064816100ae565b5060017f9b779b17422d0df92223018b32b4d1fa46e071723d6817e2486d003becc55f0055600180546001600160a01b0319166001600160a01b039290921691909117905561012e565b600080546001600160a01b038381166001600160a01b0319831681178455604051919092169283917f8be0079c531659141344cd1fd0a4f28419497f9722a3daafe3b4186f6b6457e09190a35050565b60006020828403121561011057600080fd5b81516001600160a01b038116811461012757600080fd5b9392505050565b610c6e8061013d6000396000f3fe608060405234801561001057600080fd5b50600436106100a95760003560e01c80638da5cb5b116100715780638da5cb5b14610178578063b85da8d214610189578063d2e804941461019c578063d3153769146101af578063e3cd0980146101c2578063f2fde38b146101d557600080fd5b80632ed25620146100ae5780635de97f9014610101578063715018a61461012c578063751d8e68146101365780637ffdf53e1461016f575b600080fd5b6100ec6100bc366004610989565b81516020818401810180516003825292820194820194909420919093529091526000908152604090205460ff1681565b60405190151581526020015b60405180910390f35b600154610114906001600160a01b031681565b6040516001600160a01b0390911681526020016100f8565b6101346101e8565b005b6101616101443660046109d7565b805160208183018101805160048252928201919093012091525481565b6040519081526020016100f8565b61016160025481565b6000546001600160a01b0316610114565b610134610197366004610a14565b6101fc565b6101346101aa366004610a3e565b610343565b6101346101bd366004610aa3565b6103cf565b6101346101d0366004610b68565b610799565b6101346101e3366004610b68565b6107c3565b6101f0610801565b6101fa600061082e565b565b610204610801565b61020c61087e565b6002548110156102595760405162461bcd60e51b8152602060048201526013602482015272496e73756666696369656e7420706f696e747360681b60448201526064015b60405180910390fd5b6000600254826102699190610ba0565b61027b90670de0b6b3a7640000610bc2565b6001546040516340c10f1960e01b81526001600160a01b038681166004830152602482018490529293509116906340c10f1990604401600060405180830381600087803b1580156102cb57600080fd5b505af11580156102df573d6000803e3d6000fd5b505060408051858152602081018590526001600160a01b03871693507f8489cc43a42dbf9d33259b91b6c919c19644ac3b135272570f33f989637a110292500160405180910390a25061033f6001600080516020610c1983398151915255565b5050565b61034b610801565b6000811161038e5760405162461bcd60e51b815260206004820152601060248201526f052617465206d757374206265203e20360841b6044820152606401610250565b60025460408051918252602082018390527fa951dd7112ba7b7fbc01435d34365ae90f77c21ae3715041c3d0ccb9f6ed0daa910160405180910390a1600255565b6103d7610801565b6103df61087e565b8281146104205760405162461bcd60e51b815260206004820152600f60248201526e098cadccee8d040dad2e6dac2e8c6d608b1b6044820152606401610250565b8261045c5760405162461bcd60e51b815260206004820152600c60248201526b456d7074792061727261797360a01b6044820152606401610250565b6000805b848110156106f3576003888860405161047a929190610bdf565b9081526020016040518091039020600087878481811061049c5761049c610bef565b90506020020160208101906104b19190610b68565b6001600160a01b0316815260208101919091526040016000205460ff161561050d5760405162461bcd60e51b815260206004820152600f60248201526e105b1c9958591e4818db185a5b5959608a1b6044820152606401610250565b600160038989604051610521929190610bdf565b9081526020016040518091039020600088888581811061054357610543610bef565b90506020020160208101906105589190610b68565b6001600160a01b0390811682526020820192909252604001600020805460ff191692151592909217909155600154166340c10f1987878481811061059e5761059e610bef565b90506020020160208101906105b39190610b68565b8686858181106105c5576105c5610bef565b6040516001600160e01b031960e087901b1681526001600160a01b0390941660048501526020029190910135602483015250604401600060405180830381600087803b15801561061457600080fd5b505af1158015610628573d6000803e3d6000fd5b5050505083838281811061063e5761063e610bef565b90506020020135826106509190610c05565b915085858281811061066457610664610bef565b90506020020160208101906106799190610b68565b6001600160a01b03168888604051610692929190610bdf565b60405180910390207f8b66abc81eb9e4b88acacafcc6d75ece18e30943c5ac9d9fd331ddb42eaffe3c8686858181106106cd576106cd610bef565b905060200201356040516106e391815260200190565b60405180910390a3600101610460565b508060048888604051610707929190610bdf565b908152602001604051809103902060008282546107249190610c05565b90915550506040516107399088908890610bdf565b6040805191829003822083835260208301879052917f1214b87ce79168653729c3598c2d9063d649a66bb1ac58313de1ad0dd9ad6395910160405180910390a2506107916001600080516020610c1983398151915255565b505050505050565b6107a1610801565b600180546001600160a01b0319166001600160a01b0392909216919091179055565b6107cb610801565b6001600160a01b0381166107f557604051631e4fbdf760e01b815260006004820152602401610250565b6107fe8161082e565b50565b6000546001600160a01b031633146101fa5760405163118cdaa760e01b8152336004820152602401610250565b600080546001600160a01b038381166001600160a01b0319831681178455604051919092169283917f8be0079c531659141344cd1fd0a4f28419497f9722a3daafe3b4186f6b6457e09190a35050565b61088661089a565b6002600080516020610c1983398151915255565b600080516020610c19833981519152546002036101fa57604051633ee5aeb560e01b815260040160405180910390fd5b634e487b7160e01b600052604160045260246000fd5b600082601f8301126108f157600080fd5b813567ffffffffffffffff8082111561090c5761090c6108ca565b604051601f8301601f19908116603f01168101908282118183101715610934576109346108ca565b8160405283815286602085880101111561094d57600080fd5b836020870160208301376000602085830101528094505050505092915050565b80356001600160a01b038116811461098457600080fd5b919050565b6000806040838503121561099c57600080fd5b823567ffffffffffffffff8111156109b357600080fd5b6109bf858286016108e0565b9250506109ce6020840161096d565b90509250929050565b6000602082840312156109e957600080fd5b813567ffffffffffffffff811115610a0057600080fd5b610a0c848285016108e0565b949350505050565b60008060408385031215610a2757600080fd5b610a308361096d565b946020939093013593505050565b600060208284031215610a5057600080fd5b5035919050565b60008083601f840112610a6957600080fd5b50813567ffffffffffffffff811115610a8157600080fd5b6020830191508360208260051b8501011115610a9c57600080fd5b9250929050565b60008060008060008060608789031215610abc57600080fd5b863567ffffffffffffffff80821115610ad457600080fd5b818901915089601f830112610ae857600080fd5b813581811115610af757600080fd5b8a6020828501011115610b0957600080fd5b602092830198509650908801359080821115610b2457600080fd5b610b308a838b01610a57565b90965094506040890135915080821115610b4957600080fd5b50610b5689828a01610a57565b979a9699509497509295939492505050565b600060208284031215610b7a57600080fd5b610b838261096d565b9392505050565b634e487b7160e01b600052601160045260246000fd5b600082610bbd57634e487b7160e01b600052601260045260246000fd5b500490565b8082028115828204841417610bd957610bd9610b8a565b92915050565b8183823760009101908152919050565b634e487b7160e01b600052603260045260246000fd5b80820180821115610bd957610bd9610b8a56fe9b779b17422d0df92223018b32b4d1fa46e071723d6817e2486d003becc55f00a2646970667358221220e09c7ac3a10e80427d1ed58e357ec5588d45586ea06a9b4f4ed10404a248e8a864736f6c63430008180033",
  "linkReferences": {},
  "deployedLinkReferences": {}
}