{
  "_format": "hh-sol-artifact-1",
  "contractName": "OrbitToken",
  "sourceName": "contracts/OrbitToken.sol",
  "abi": [
    {
      "inputs": [],
      "stateMutability": "nonpayable",
      "type": "constructor"
    },
    {
      "inputs": [
        {
          "internalType": "address",
          "name": "spender",
          "type": "address"
        },
        {
          "internalType": "uint256",
          "name": "allowance",
          "type": "uint256"
        },
        {
          "internalType": "uint256",
          "name": "needed",
          "type": "uint256"
        }
      ],
      "name": "ERC20InsufficientAllowance",
      "type": "error"
    },
    {
      "inputs": [
        {
          "internalType": "address",
          "name": "sender",
          "type": "address"
        },
        {
          "internalType": "uint256",
          "name": "balance",
          "type": "uint256"
        },
        {
          "internalType": "uint256",
          "name": "needed",
          "type": "uint256"
        }
      ],
      "name": "ERC20InsufficientBalance",
      "type": "error"
    },
    {
      "inputs": [
        {
          "internalType": "address",
          "name": "approver",
          "type": "address"
        }
      ],
      "name": "ERC20InvalidApprover",
      "type": "error"
    },
    {
      "inputs": [
        {
          "internalType": "address",
          "name": "receiver",
          "type": "address"
        }
      ],
      "name": "ERC20InvalidReceiver",
      "type": "error"
    },
    {
      "inputs": [
        {
          "internalType": "address",
          "name": "sender",
          "type": "address"
        }
      ],
      "name": "ERC20InvalidSender",
      "type": "error"
    },
    {
      "inputs": [
        {
          "internalType": "address",
          "name": "spender",
          "type": "address"
        }
      ],
      "name": "ERC20InvalidSpender",
      "type": "error"
    },
    {
      "inputs": [
        {
          "internalType": "address",
          "name": "owner",
          "type": "address"
        }
      ],
      "name": "OwnableInvalidOwner",
      "type": "error"
    },
    {
      "inputs": [
        {
          "internalType": "address",
          "name": "account",
          "type": "address"
        }
      ],
      "name": "OwnableUnauthorizedAccount",
      "type": "error"
    },
    {
      "anonymous": false,
      "inputs": [
        {
          "indexed": true,
          "internalType": "address",
          "name": "owner",
          "type": "address"
        },
        {
          "indexed": true,
          "internalType": "address",
          "name": "spender",
          "type": "address"
        },
        {
          "indexed": false,
          "internalType": "uint256",
          "name": "value",
          "type": "uint256"
        }
      ],
      "name": "Approval",
      "type": "event"
    },
    {
      "anonymous": false,
      "inputs": [
        {
          "indexed": true,
          "internalType": "address",
          "name": "account",
          "type": "address"
        }
      ],
      "name": "MinterAdded",
      "type": "event"
    },
    {
      "anonymous": false,
      "inputs": [
        {
          "indexed": true,
          "internalType": "address",
          "name": "account",
          "type": "address"
        }
      ],
      "name": "MinterRemoved",
      "type": "event"
    },
    {
      "anonymous": false,
      "inputs": [
        {
          "indexed": true,
          "internalType": "address",
          "name": "previousOwner",
          "type": "address"
        },
        {
          "indexed": true,
          "internalType": "address",
          "name": "newOwner",
          "type": "address"
        }
      ],
      "name": "OwnershipTransferred",
      "type": "event"
    },
    {
      "anonymous": false,
      "inputs": [
        {
          "indexed": true,
          "internalType": "address",
          "name": "from",
          "type": "address"
        },
        {
          "indexed": true,
          "internalType": "address",
          "name": "to",
          "type": "address"
        },
        {
          "indexed": false,
          "internalType": "uint256",
          "name": "value",
          "type": "uint256"
        }
      ],
      "name": "Transfer",
      "type": "event"
    },
    {
      "inputs": [],
      "name": "MAX_SUPPLY",
      "outputs": [
        {
          "internalType": "uint256",
          "name": "",
          "type": "uint256"
        }
      ],
      "stateMutability": "view",
      "type": "function"
    },
    {
      "inputs": [
        {
          "internalType": "address",
          "name": "account",
          "type": "address"
        }
      ],
      "name": "addMinter",
      "outputs": [],
      "stateMutability": "nonpayable",
      "type": "function"
    },
    {
      "inputs": [
        {
          "internalType": "address",
          "name": "owner",
          "type": "address"
        },
        {
          "internalType": "address",
          "name": "spender",
          "type": "address"
        }
      ],
      "name": "allowance",
      "outputs": [
        {
          "internalType": "uint256",
          "name": "",
          "type": "uint256"
        }
      ],
      "stateMutability": "view",
      "type": "function"
    },
    {
      "inputs": [
        {
          "internalType": "address",
          "name": "spender",
          "type": "address"
        },
        {
          "internalType": "uint256",
          "name": "value",
          "type": "uint256"
        }
      ],
      "name": "approve",
      "outputs": [
        {
          "internalType": "bool",
          "name": "",
          "type": "bool"
        }
      ],
      "stateMutability": "nonpayable",
      "type": "function"
    },
    {
      "inputs": [
        {
          "internalType": "address",
          "name": "account",
          "type": "address"
        }
      ],
      "name": "balanceOf",
      "outputs": [
        {
          "internalType": "uint256",
          "name": "",
          "type": "uint256"
        }
      ],
      "stateMutability": "view",
      "type": "function"
    },
    {
      "inputs": [
        {
          "internalType": "uint256",
          "name": "value",
          "type": "uint256"
        }
      ],
      "name": "burn",
      "outputs": [],
      "stateMutability": "nonpayable",
      "type": "function"
    },
    {
      "inputs": [
        {
          "internalType": "address",
          "name": "account",
          "type": "address"
        },
        {
          "internalType": "uint256",
          "name": "value",
          "type": "uint256"
        }
      ],
      "name": "burnFrom",
      "outputs": [],
      "stateMutability": "nonpayable",
      "type": "function"
    },
    {
      "inputs": [],
      "name": "decimals",
      "outputs": [
        {
          "internalType": "uint8",
          "name": "",
          "type": "uint8"
        }
      ],
      "stateMutability": "view",
      "type": "function"
    },
    {
      "inputs": [
        {
          "internalType": "address",
          "name": "to",
          "type": "address"
        },
        {
          "internalType": "uint256",
          "name": "amount",
          "type": "uint256"
        }
      ],
      "name": "mint",
      "outputs": [],
      "stateMutability": "nonpayable",
      "type": "function"
    },
    {
      "inputs": [
        {
          "internalType": "address",
          "name": "",
          "type": "address"
        }
      ],
      "name": "minters",
      "outputs": [
        {
          "internalType": "bool",
          "name": "",
          "type": "bool"
        }
      ],
      "stateMutability": "view",
      "type": "function"
    },
    {
      "inputs": [],
      "name": "name",
      "outputs": [
        {
          "internalType": "string",
          "name": "",
          "type": "string"
        }
      ],
      "stateMutability": "view",
      "type": "function"
    },
    {
      "inputs": [],
      "name": "owner",
      "outputs": [
        {
          "internalType": "address",
          "name": "",
          "type": "address"
        }
      ],
      "stateMutability": "view",
      "type": "function"
    },
    {
      "inputs": [
        {
          "internalType": "address",
          "name": "account",
          "type": "address"
        }
      ],
      "name": "removeMinter",
      "outputs": [],
      "stateMutability": "nonpayable",
      "type": "function"
    },
    {
      "inputs": [],
      "name": "renounceOwnership",
      "outputs": [],
      "stateMutability": "nonpayable",
      "type": "function"
    },
    {
      "inputs": [],
      "name": "symbol",
      "outputs": [
        {
          "internalType": "string",
          "name": "",
          "type": "string"
        }
      ],
      "stateMutability": "view",
      "type": "function"
    },
    {
      "inputs": [],
      "name": "totalSupply",
      "outputs": [
        {
          "internalType": "uint256",
          "name": "",
          "type": "uint256"
        }
      ],
      "stateMutability": "view",
      "type": "function"
    },
    {
      "inputs": [
        {
          "internalType": "address",
          "name": "to",
          "type": "address"
        },
        {
          "internalType": "uint256",
          "name": "value",
          "type": "uint256"
        }
      ],
      "name": "transfer",
      "outputs": [
        {
          "internalType": "bool",
          "name": "",
          "type": "bool"
        }
      ],
      "stateMutability": "nonpayable",
      "type": "function"
    },
    {
      "inputs": [
        {
          "internalType": "address",
          "name": "from",
          "type": "address"
        },
        {
          "internalType": "address",
          "name": "to",
          "type": "address"
        },
        {
          "internalType": "uint256",
          "name": "value",
          "type": "uint256"
        }
      ],
      "name": "transferFrom",
      "outputs": [
        {
          "internalType": "bool",
          "name": "",
          "type": "bool"
        }
      ],
      "stateMutability": "nonpayable",
      "type": "function"
    },
    {
      "inputs": [
        {
          "internalType": "address",
          "name": "newOwner",
          "type": "address"
        }
      ],
      "name": "transferOwnership",
      "outputs": [],
      "stateMutability": "nonpayable",
      "type": "function"
    }
  ],
  "bytecode": "0x60806040523480156200001157600080fd5b5033604051806040016040528060048152602001634f72627360e01b815250604051806040016040528060048152602001634f52425360e01b81525081600390816200005e919062000333565b5060046200006d828262000333565b5050506001600160a01b038116620000a057604051631e4fbdf760e01b8152600060048201526024015b60405180910390fd5b620000ab81620000c9565b50620000c3336a52b7d2dcc80cd2e40000006200011b565b62000427565b600580546001600160a01b038381166001600160a01b0319831681179093556040519116919082907f8be0079c531659141344cd1fd0a4f28419497f9722a3daafe3b4186f6b6457e090600090a35050565b6001600160a01b038216620001475760405163ec442f0560e01b81526000600482015260240162000097565b620001556000838362000159565b5050565b6001600160a01b038316620001885780600260008282546200017c9190620003ff565b90915550620001fc9050565b6001600160a01b03831660009081526020819052604090205481811015620001dd5760405163391434e360e21b81526001600160a01b0385166004820152602481018290526044810183905260640162000097565b6001600160a01b03841660009081526020819052604090209082900390555b6001600160a01b0382166200021a5760028054829003905562000239565b6001600160a01b03821660009081526020819052604090208054820190555b816001600160a01b0316836001600160a01b03167fddf252ad1be2c89b69c2b068fc378daa952ba7f163c4a11628f55a4df523b3ef836040516200027f91815260200190565b60405180910390a3505050565b634e487b7160e01b600052604160045260246000fd5b600181811c90821680620002b757607f821691505b602082108103620002d857634e487b7160e01b600052602260045260246000fd5b50919050565b601f8211156200032e576000816000526020600020601f850160051c81016020861015620003095750805b601f850160051c820191505b818110156200032a5782815560010162000315565b5050505b505050565b81516001600160401b038111156200034f576200034f6200028c565b6200036781620003608454620002a2565b84620002de565b602080601f8311600181146200039f5760008415620003865750858301515b600019600386901b1c1916600185901b1785556200032a565b600085815260208120601f198616915b82811015620003d057888601518255948401946001909101908401620003af565b5085821015620003ef5787850151600019600388901b60f8161c191681555b5050505050600190811b01905550565b808201808211156200042157634e487b7160e01b600052601160045260246000fd5b92915050565b610b8880620004376000396000f3fe608060405234801561001057600080fd5b50600436106101215760003560e01c806370a08231116100ad578063983b2d5611610071578063983b2d5614610250578063a9059cbb14610263578063dd62ed3e14610276578063f2fde38b146102af578063f46eccc4146102c257600080fd5b806370a08231146101e9578063715018a61461021257806379cc67901461021a5780638da5cb5b1461022d57806395d89b411461024857600080fd5b80633092afd5116100f45780633092afd51461018c578063313ce567146101a157806332cb6b0c146101b057806340c10f19146101c357806342966c68146101d657600080fd5b806306fdde0314610126578063095ea7b31461014457806318160ddd1461016757806323b872dd14610179575b600080fd5b61012e6102e5565b60405161013b91906109b8565b60405180910390f35b610157610152366004610a23565b610377565b604051901515815260200161013b565b6002545b60405190815260200161013b565b610157610187366004610a4d565b610391565b61019f61019a366004610a89565b6103b5565b005b6040516012815260200161013b565b61016b6b033b2e3c9fd0803ce800000081565b61019f6101d1366004610a23565b610406565b61019f6101e4366004610aab565b6104fc565b61016b6101f7366004610a89565b6001600160a01b031660009081526020819052604090205490565b61019f610509565b61019f610228366004610a23565b61051d565b6005546040516001600160a01b03909116815260200161013b565b61012e610532565b61019f61025e366004610a89565b610541565b610157610271366004610a23565b610595565b61016b610284366004610ac4565b6001600160a01b03918216600090815260016020908152604080832093909416825291909152205490565b61019f6102bd366004610a89565b6105a3565b6101576102d0366004610a89565b60066020526000908152604090205460ff1681565b6060600380546102f490610af7565b80601f016020809104026020016040519081016040528092919081815260200182805461032090610af7565b801561036d5780601f106103425761010080835404028352916020019161036d565b820191906000526020600020905b81548152906001019060200180831161035057829003601f168201915b5050505050905090565b6000336103858185856105de565b60019150505b92915050565b60003361039f8582856105f0565b6103aa85858561066f565b506001949350505050565b6103bd6106ce565b6001600160a01b038116600081815260066020526040808220805460ff19169055517fe94479a9f7e1952cc78f2d6baab678adc1b772d936c6583def489e524cb666929190a250565b3360009081526006602052604090205460ff168061042e57506005546001600160a01b031633145b61047f5760405162461bcd60e51b815260206004820152601c60248201527f4f7262733a2063616c6c6572206973206e6f742061206d696e7465720000000060448201526064015b60405180910390fd5b6b033b2e3c9fd0803ce80000008161049660025490565b6104a09190610b31565b11156104ee5760405162461bcd60e51b815260206004820152601960248201527f4f7262733a206d617820737570706c79206578636565646564000000000000006044820152606401610476565b6104f882826106fb565b5050565b6105063382610731565b50565b6105116106ce565b61051b6000610767565b565b6105288233836105f0565b6104f88282610731565b6060600480546102f490610af7565b6105496106ce565b6001600160a01b038116600081815260066020526040808220805460ff19166001179055517f6ae172837ea30b801fbfcdd4108aa1d5bf8ff775444fd70256b44e6bf3dfc3f69190a250565b60003361038581858561066f565b6105ab6106ce565b6001600160a01b0381166105d557604051631e4fbdf760e01b815260006004820152602401610476565b61050681610767565b6105eb83838360016107b9565b505050565b6001600160a01b03838116600090815260016020908152604080832093861683529290522054600019811015610669578181101561065a57604051637dc7a0d960e11b81526001600160a01b03841660048201526024810182905260448101839052606401610476565b610669848484840360006107b9565b50505050565b6001600160a01b03831661069957604051634b637e8f60e11b815260006004820152602401610476565b6001600160a01b0382166106c35760405163ec442f0560e01b815260006004820152602401610476565b6105eb83838361088e565b6005546001600160a01b0316331461051b5760405163118cdaa760e01b8152336004820152602401610476565b6001600160a01b0382166107255760405163ec442f0560e01b815260006004820152602401610476565b6104f86000838361088e565b6001600160a01b03821661075b57604051634b637e8f60e11b815260006004820152602401610476565b6104f88260008361088e565b600580546001600160a01b038381166001600160a01b0319831681179093556040519116919082907f8be0079c531659141344cd1fd0a4f28419497f9722a3daafe3b4186f6b6457e090600090a35050565b6001600160a01b0384166107e35760405163e602df0560e01b815260006004820152602401610476565b6001600160a01b03831661080d57604051634a1406b160e11b815260006004820152602401610476565b6001600160a01b038085166000908152600160209081526040808320938716835292905220829055801561066957826001600160a01b0316846001600160a01b03167f8c5be1e5ebec7d5bd14f71427d1e84f3dd0314c0f7b2291e5b200ac8c7c3b9258460405161088091815260200190565b60405180910390a350505050565b6001600160a01b0383166108b95780600260008282546108ae9190610b31565b9091555061092b9050565b6001600160a01b0383166000908152602081905260409020548181101561090c5760405163391434e360e21b81526001600160a01b03851660048201526024810182905260448101839052606401610476565b6001600160a01b03841660009081526020819052604090209082900390555b6001600160a01b03821661094757600280548290039055610966565b6001600160a01b03821660009081526020819052604090208054820190555b816001600160a01b0316836001600160a01b03167fddf252ad1be2c89b69c2b068fc378daa952ba7f163c4a11628f55a4df523b3ef836040516109ab91815260200190565b60405180910390a3505050565b60006020808352835180602085015260005b818110156109e6578581018301518582016040015282016109ca565b506000604082860101526040601f19601f8301168501019250505092915050565b80356001600160a01b0381168114610a1e57600080fd5b919050565b60008060408385031215610a3657600080fd5b610a3f83610a07565b946020939093013593505050565b600080600060608486031215610a6257600080fd5b610a6b84610a07565b9250610a7960208501610a07565b9150604084013590509250925092565b600060208284031215610a9b57600080fd5b610aa482610a07565b9392505050565b600060208284031215610abd57600080fd5b5035919050565b60008060408385031215610ad757600080fd5b610ae083610a07565b9150610aee60208401610a07565b90509250929050565b600181811c90821680610b0b57607f821691505b602082108103610b2b57634e487b7160e01b600052602260045260246000fd5b50919050565b8082018082111561038b57634e487b7160e01b600052601160045260246000fdfea26469706673582212204c25db7ee76bdd0b528b2955f19a007e45cebbfbe17567d42f70ca346ee9076864736f6c63430008180033",
  "linkReferences": {},
  "deployedLinkReferences": {}
}